:1002D200202D2D44554E4720444F2D2D0020204CDB
:0C02E2004D33352050524F4A4543540024
:0503B000C10001110174
:030003000200F404
:1000F400C0E0C0F0C083C082C0D075D000C000C0D2
:1001040001C002C003C004C005C006C00712039B9F
:100114007BFF7A0279D21202297FF47E01120294C3
:1001240012039BC200C2B3D007D006D005D004D0BE
:1001340003D002D001D000D0D0D082D083D0F0D070
:02014400E032A7
:10009A00C2B31201D41203A912038B7BFF7A02792D
:1000AA00DF1202297D017C00E4FFFE1202EEAF118D
:1000BA0012024C20B40630B4FD12019120B008306F
:1000CA00B0FD12039BD2003000D11202B48F0B7F15
:1000DA000212037BAD11AF0B120146E50BC395115A
:0A00EA004004D2B380E1C2B380DD10
:1001910012039B20B70520B73780FB20B51330B57C
:1001A100FD0511D3E5119491748094804003E4F529
:1001B1001120B60D30B6FD1511E511F4700375115E
:1001C10091E4FDFCFFFE1202EEAF1112024C80C35E
:0301D10002039B8B
:100270002053455420414C41524D3A002A4300201E
:100280004E4849455420444F3A200020616C617229
:040290006D3A2000A3
:10033600E4FDFCC3ED9FEC9E50070DBD00010C8053
:01034600F2C4
:010347002293
:10029400E4FDFCC3ED9FEC9E5015E4FBFA0BBB00A0
:0F02A400010AEB647B4A70F50DBD00010C80E48C
:0102B3002228
:10036B00D2827F037E00120336C2827F1E020336C7
:10034800EF339287EFA2E69286A2E59285A2E49225
:020358008422FD
:10035A00EFA2E39287A2E29286A2E19285139284A7
:01036A002270
:10037B00AB0712034812036BAF0312035A02036B52
:0E039B00C2807F0112037B7F0A7E00020336C0
:1001D400E4FF12035A7F147E00120294C2807F034C
:1001E40012035A12036B7F057E0012029412036BF2
:1001F4007F647E001203367F0212035A12036B7F60
:100204002812037B7F0C12037B7F0612037B7F0182
:0302140002037B67
:1002EE00ED4C7006EF2480F98004EF24C0F9AF01C5
:0A02FE0012037B7F0A7E0002033624
:0D03210075F06484E5F075F00A842430FF67
:08032E00D28012037BC2802281
:1002170075F00A84E5F02430FF12032E7BFF7A0283
:02022700797CE0
:100229008B0E8A0F8910AB0EAA0FA910120308FFB3
:10023900601012032E74012510F510E4350FF50F27
:0302490080E4222C
:10024C008F0C7BFF7A027970120229E50C75F06431
:10025C0012032AE50C120321E50C1202177F647EAF
:04026C0000020294F6
:100146008F0C8D0D7BFF7A02797F120229E50C75E3
:10015600F06412032AE50C120321E50C1202177D46
:10016600017C00E4FFFE1202EE7BFF7A02798B121D
:100176000229E50D75F06412032AE50D120321E547
:0B0186000D1202177F647E000202943D
:1002B4007590FFC2A0C2A1C2A2D2A3D2A4C2A3C2FB
:0D02C400A420A5FD30A5FDD2A6AF90C2A6D6
:0102D100220A
:10038B00758902758CEC758AECD28CD2A9D2AF220E
:0703A900D2A8D288D2AF22D6
:03000B00020006EA
:03000600B2A7326C
:0300000002000EED
:0C000E00787FE4F6D8FD758120020055D3
:10030800BB010689828A83E0225002E722BBFE02F3
:09031800E32289828A83E4932226
:10001A0002009AE493A3F8E493A34003F68001F262
:10002A0008DFF48029E493A3F85407240CC8C333E7
:10003A00C4540F4420C8834004F456800146F6DFB6
:10004A00E4800B01020408102040809003B0E47E93
:10005A00019360BCA3FF543F30E509541FFEE493AB
:10006A00A360010ECF54C025E060A840B8E493A372
:10007A00FAE493A3F8E493A3C8C582C8CAC583CA9D
:10008A00F0A3C8C582C8CAC583CADFE9DEE780BE55
:0103B5000047
:00000001FF
